{
  "_format": "hh-sol-artifact-1",
  "contractName": "Campaign",
  "sourceName": "contracts/Campaigns.sol",
  "abi": [
    {
      "inputs": [
        {
          "internalType": "uint256",
          "name": "_minimum",
          "type": "uint256"
        },
        {
          "internalType": "address",
          "name": "_creator",
          "type": "address"
        },
        {
          "internalType": "string",
          "name": "_creatorName",
          "type": "string"
        },
        {
          "internalType": "string",
          "name": "name",
          "type": "string"
        },
        {
          "internalType": "string",
          "name": "description",
          "type": "string"
        },
        {
          "internalType": "string",
          "name": "image",
          "type": "string"
        },
        {
          "internalType": "uint256",
          "name": "_target",
          "type": "uint256"
        }
      ],
      "stateMutability": "nonpayable",
      "type": "constructor"
    },
    {
      "anonymous": false,
      "inputs": [
        {
          "indexed": false,
          "internalType": "address",
          "name": "to",
          "type": "address"
        },
        {
          "indexed": false,
          "internalType": "uint256",
          "name": "amount",
          "type": "uint256"
        }
      ],
      "name": "Contribute",
      "type": "event"
    },
    {
      "anonymous": false,
      "inputs": [
        {
          "indexed": false,
          "internalType": "string",
          "name": "message",
          "type": "string"
        }
      ],
      "name": "FinalizedRequest",
      "type": "event"
    },
    {
      "anonymous": false,
      "inputs": [
        {
          "indexed": false,
          "internalType": "uint256",
          "name": "amount",
          "type": "uint256"
        },
        {
          "indexed": false,
          "internalType": "string",
          "name": "description",
          "type": "string"
        }
      ],
      "name": "RequestCreated",
      "type": "event"
    },
    {
      "inputs": [],
      "name": "CampaignDescription",
      "outputs": [
        {
          "internalType": "string",
          "name": "",
          "type": "string"
        }
      ],
      "stateMutability": "view",
      "type": "function"
    },
    {
      "inputs": [],
      "name": "CampaignName",
      "outputs": [
        {
          "internalType": "string",
          "name": "",
          "type": "string"
        }
      ],
      "stateMutability": "view",
      "type": "function"
    },
    {
      "inputs": [],
      "name": "contribute",
      "outputs": [],
      "stateMutability": "payable",
      "type": "function"
    },
    {
      "inputs": [
        {
          "internalType": "address",
          "name": "",
          "type": "address"
        }
      ],
      "name": "contributors",
      "outputs": [
        {
          "internalType": "uint256",
          "name": "",
          "type": "uint256"
        }
      ],
      "stateMutability": "view",
      "type": "function"
    },
    {
      "inputs": [],
      "name": "contributorsCount",
      "outputs": [
        {
          "internalType": "uint256",
          "name": "",
          "type": "uint256"
        }
      ],
      "stateMutability": "view",
      "type": "function"
    },
    {
      "inputs": [
        {
          "internalType": "string",
          "name": "_description",
          "type": "string"
        },
        {
          "internalType": "address payable",
          "name": "_recipient",
          "type": "address"
        },
        {
          "internalType": "uint256",
          "name": "_value",
          "type": "uint256"
        }
      ],
      "name": "createRequest",
      "outputs": [],
      "stateMutability": "nonpayable",
      "type": "function"
    },
    {
      "inputs": [
        {
          "internalType": "uint256",
          "name": "_index",
          "type": "uint256"
        }
      ],
      "name": "finalizeRequest",
      "outputs": [],
      "stateMutability": "nonpayable",
      "type": "function"
    },
    {
      "inputs": [],
      "name": "getContractBalance",
      "outputs": [
        {
          "internalType": "uint256",
          "name": "",
          "type": "uint256"
        }
      ],
      "stateMutability": "view",
      "type": "function"
    },
    {
      "inputs": [],
      "name": "getSummary",
      "outputs": [
        {
          "internalType": "uint256",
          "name": "",
          "type": "uint256"
        },
        {
          "internalType": "uint256",
          "name": "",
          "type": "uint256"
        },
        {
          "internalType": "uint256",
          "name": "",
          "type": "uint256"
        },
        {
          "internalType": "uint256",
          "name": "",
          "type": "uint256"
        },
        {
          "internalType": "address",
          "name": "",
          "type": "address"
        },
        {
          "internalType": "string",
          "name": "",
          "type": "string"
        },
        {
          "internalType": "string",
          "name": "",
          "type": "string"
        },
        {
          "internalType": "string",
          "name": "",
          "type": "string"
        },
        {
          "internalType": "uint256",
          "name": "",
          "type": "uint256"
        },
        {
          "internalType": "string",
          "name": "",
          "type": "string"
        }
      ],
      "stateMutability": "view",
      "type": "function"
    },
    {
      "inputs": [],
      "name": "imageUrl",
      "outputs": [
        {
          "internalType": "string",
          "name": "",
          "type": "string"
        }
      ],
      "stateMutability": "view",
      "type": "function"
    },
    {
      "inputs": [],
      "name": "manager",
      "outputs": [
        {
          "internalType": "address",
          "name": "",
          "type": "address"
        }
      ],
      "stateMutability": "view",
      "type": "function"
    },
    {
      "inputs": [],
      "name": "managerName",
      "outputs": [
        {
          "internalType": "string",
          "name": "",
          "type": "string"
        }
      ],
      "stateMutability": "view",
      "type": "function"
    },
    {
      "inputs": [],
      "name": "minimumContribution",
      "outputs": [
        {
          "internalType": "uint256",
          "name": "",
          "type": "uint256"
        }
      ],
      "stateMutability": "view",
      "type": "function"
    },
    {
      "inputs": [],
      "name": "raisedAmount",
      "outputs": [
        {
          "internalType": "uint256",
          "name": "",
          "type": "uint256"
        }
      ],
      "stateMutability": "view",
      "type": "function"
    },
    {
      "inputs": [],
      "name": "refund",
      "outputs": [],
      "stateMutability": "nonpayable",
      "type": "function"
    },
    {
      "inputs": [
        {
          "internalType": "uint256",
          "name": "",
          "type": "uint256"
        }
      ],
      "name": "requests",
      "outputs": [
        {
          "internalType": "string",
          "name": "description",
          "type": "string"
        },
        {
          "internalType": "address payable",
          "name": "recipient",
          "type": "address"
        },
        {
          "internalType": "uint256",
          "name": "value",
          "type": "uint256"
        },
        {
          "internalType": "bool",
          "name": "completed",
          "type": "bool"
        },
        {
          "internalType": "uint256",
          "name": "votersCount",
          "type": "uint256"
        }
      ],
      "stateMutability": "view",
      "type": "function"
    },
    {
      "inputs": [],
      "name": "requestsCount",
      "outputs": [
        {
          "internalType": "uint256",
          "name": "",
          "type": "uint256"
        }
      ],
      "stateMutability": "view",
      "type": "function"
    },
    {
      "inputs": [],
      "name": "target",
      "outputs": [
        {
          "internalType": "uint256",
          "name": "",
          "type": "uint256"
        }
      ],
      "stateMutability": "view",
      "type": "function"
    },
    {
      "inputs": [
        {
          "internalType": "uint256",
          "name": "_index",
          "type": "uint256"
        }
      ],
      "name": "voteRequest",
      "outputs": [],
      "stateMutability": "nonpayable",
      "type": "function"
    }
  ],
  "bytecode": "0x60806040523480156200001157600080fd5b506040516200223b3803806200223b833981810160405281019062000037919062000247565b85600560006101000a81548173ffffffffffffffffffffffffffffffffffffffff021916908373ffffffffffffffffffffffffffffffffffffffff160217905550846006908051906020019062000090929190620000f7565b508360009080519060200190620000a9929190620000f7565b508260019080519060200190620000c2929190620000f7565b508160029080519060200190620000db929190620000f7565b508060078190555086600481905550505050505050506200053a565b82805462000105906200042b565b90600052602060002090601f01602090048101928262000129576000855562000175565b82601f106200014457805160ff191683800117855562000175565b8280016001018555821562000175579182015b828111156200017457825182559160200191906001019062000157565b5b50905062000184919062000188565b5090565b5b80821115620001a357600081600090555060010162000189565b5090565b6000620001be620001b88462000381565b62000358565b905082815260208101848484011115620001d757600080fd5b620001e4848285620003f5565b509392505050565b600081519050620001fd8162000506565b92915050565b600082601f8301126200021557600080fd5b815162000227848260208601620001a7565b91505092915050565b600081519050620002418162000520565b92915050565b600080600080600080600060e0888a0312156200026357600080fd5b6000620002738a828b0162000230565b9750506020620002868a828b01620001ec565b965050604088015167ffffffffffffffff811115620002a457600080fd5b620002b28a828b0162000203565b955050606088015167ffffffffffffffff811115620002d057600080fd5b620002de8a828b0162000203565b945050608088015167ffffffffffffffff811115620002fc57600080fd5b6200030a8a828b0162000203565b93505060a088015167ffffffffffffffff8111156200032857600080fd5b620003368a828b0162000203565b92505060c0620003498a828b0162000230565b91505092959891949750929550565b60006200036462000377565b905062000372828262000461565b919050565b6000604051905090565b600067ffffffffffffffff8211156200039f576200039e620004c6565b5b620003aa82620004f5565b9050602081019050919050565b6000620003c482620003cb565b9050919050565b600073ffffffffffffffffffffffffffffffffffffffff82169050919050565b6000819050919050565b60005b8381101562000415578082015181840152602081019050620003f8565b8381111562000425576000848401525b50505050565b600060028204905060018216806200044457607f821691505b602082108114156200045b576200045a62000497565b5b50919050565b6200046c82620004f5565b810181811067ffffffffffffffff821117156200048e576200048d620004c6565b5b80604052505050565b7f4e487b7100000000000000000000000000000000000000000000000000000000600052602260045260246000fd5b7f4e487b7100000000000000000000000000000000000000000000000000000000600052604160045260246000fd5b6000601f19601f8301169050919050565b6200051181620003b7565b81146200051d57600080fd5b50565b6200052b81620003eb565b81146200053757600080fd5b50565b611cf1806200054a6000396000f3fe6080604052600436106101145760003560e01c80637e7cd1b3116100a0578063c59ee1dc11610064578063c59ee1dc1461038a578063d4b83992146103b5578063d7bb99ba146103e0578063fbfa4b7f146103ea578063fed4416a1461041557610114565b80637e7cd1b31461029d57806381d12c58146102c8578063937e09b11461030957806397654a8c14610334578063aba831501461035f57610114565b8063481c6a75116100e7578063481c6a75146101dc5780634cb6f4a514610207578063590e1ae3146102305780636f9fb98a146102475780637569b3d71461027257610114565b806303441006146101195780631b16bb5c146101425780631f6d49421461016b5780634051ddac146101a8575b600080fd5b34801561012557600080fd5b50610140600480360381019061013b91906113ed565b610440565b005b34801561014e57600080fd5b5061016960048036038101906101649190611386565b610652565b005b34801561017757600080fd5b50610192600480360381019061018d919061135d565b6107de565b60405161019f9190611720565b60405180910390f35b3480156101b457600080fd5b506101bd6107f6565b6040516101d39a9998979695949392919061176b565b60405180910390f35b3480156101e857600080fd5b506101f1610a8f565b6040516101fe9190611580565b60405180910390f35b34801561021357600080fd5b5061022e600480360381019061022991906113ed565b610ab5565b005b34801561023c57600080fd5b50610245610c5b565b005b34801561025357600080fd5b5061025c610d7a565b6040516102699190611720565b60405180910390f35b34801561027e57600080fd5b50610287610d82565b6040516102949190611720565b60405180910390f35b3480156102a957600080fd5b506102b2610d88565b6040516102bf91906115c4565b60405180910390f35b3480156102d457600080fd5b506102ef60048036038101906102ea91906113ed565b610e16565b6040516103009594939291906115e6565b60405180910390f35b34801561031557600080fd5b5061031e610f01565b60405161032b9190611720565b60405180910390f35b34801561034057600080fd5b50610349610f07565b60405161035691906115c4565b60405180910390f35b34801561036b57600080fd5b50610374610f95565b60405161038191906115c4565b60405180910390f35b34801561039657600080fd5b5061039f611023565b6040516103ac9190611720565b60405180910390f35b3480156103c157600080fd5b506103ca611029565b6040516103d79190611720565b60405180910390f35b6103e861102f565b005b3480156103f657600080fd5b506103ff61117f565b60405161040c9190611720565b60405180910390f35b34801561042157600080fd5b5061042a611185565b60405161043791906115c4565b60405180910390f35b600560009054906101000a900473ffffffffffffffffffffffffffffffffffffffff1673ffffffffffffffffffffffffffffffffffffffff163373ffffffffffffffffffffffffffffffffffffffff16146104d0576040517f08c379a00000000000000000000000000000000000000000000000000000000081526004016104c790611660565b60405180910390fd5b6000600a600083815260200190815260200160002090508060030160009054906101000a900460ff1615610539576040517f08c379a0000000000000000000000000000000000000000000000000000000008152600401610530906116c0565b60405180910390fd5b600260095461054891906118eb565b81600401541161058d576040517f08c379a000000000000000000000000000000000000000000000000000000000815260040161058490611680565b60405180910390fd5b8060010160009054906101000a900473ffffffffffffffffffffffffffffffffffffffff1673ffffffffffffffffffffffffffffffffffffffff166108fc82600201549081150290604051600060405180830381858888f193505050501580156105fb573d6000803e3d6000fd5b5060018160030160006101000a81548160ff0219169083151502179055507ff81a69d6f90c4efcb4408cde9204c1e54b3d07be8c131fad3c6d0a5dfc902319604051610646906116a0565b60405180910390a15050565b600560009054906101000a900473ffffffffffffffffffffffffffffffffffffffff1673ffffffffffffffffffffffffffffffffffffffff163373ffffffffffffffffffffffffffffffffffffffff16146106e2576040517f08c379a00000000000000000000000000000000000000000000000000000000081526004016106d990611660565b60405180910390fd5b6000600a6000600b548152602001908152602001600020905083816000019080519060200190610713929190611213565b50828160010160006101000a81548173ffffffffffffffffffffffffffffffffffffffff021916908373ffffffffffffffffffffffffffffffffffffffff16021790555081816002018190555060008160030160006101000a81548160ff02191690831515021790555060008160040181905550600b600081548092919061079a90611a1b565b91905055507f9ed1edfbd2dfc86e210a11aec68d182e6f8398485e611f2d6308f5a34d3c386882856040516107d092919061173b565b60405180910390a150505050565b60036020528060005260406000206000915090505481565b600080600080600060608060606000606060045447600b54600954600560009054906101000a900473ffffffffffffffffffffffffffffffffffffffff16600060016002600754600684805461084b906119b8565b80601f0160208091040260200160405190810160405280929190818152602001828054610877906119b8565b80156108c45780601f10610899576101008083540402835291602001916108c4565b820191906000526020600020905b8154815290600101906020018083116108a757829003601f168201915b505050505094508380546108d7906119b8565b80601f0160208091040260200160405190810160405280929190818152602001828054610903906119b8565b80156109505780601f1061092557610100808354040283529160200191610950565b820191906000526020600020905b81548152906001019060200180831161093357829003601f168201915b50505050509350828054610963906119b8565b80601f016020809104026020016040519081016040528092919081815260200182805461098f906119b8565b80156109dc5780601f106109b1576101008083540402835291602001916109dc565b820191906000526020600020905b8154815290600101906020018083116109bf57829003601f168201915b505050505092508080546109ef906119b8565b80601f0160208091040260200160405190810160405280929190818152602001828054610a1b906119b8565b8015610a685780601f10610a3d57610100808354040283529160200191610a68565b820191906000526020600020905b815481529060010190602001808311610a4b57829003601f168201915b50505050509050995099509950995099509950995099509950995090919293949596979899565b600560009054906101000a900473ffffffffffffffffffffffffffffffffffffffff1681565b6000600360003373ffffffffffffffffffffffffffffffffffffffff1673ffffffffffffffffffffffffffffffffffffffff1681526020019081526020016000205411610b37576040517f08c379a0000000000000000000000000000000000000000000000000000000008152600401610b2e906116e0565b60405180910390fd5b6000600a60008381526020019081526020016000209050600015158160050160003373ffffffffffffffffffffffffffffffffffffffff1673ffffffffffffffffffffffffffffffffffffffff16815260200190815260200160002060009054906101000a900460ff16151514610be3576040517f08c379a0000000000000000000000000000000000000000000000000000000008152600401610bda90611700565b60405180910390fd5b60018160050160003373ffffffffffffffffffffffffffffffffffffffff1673ffffffffffffffffffffffffffffffffffffffff16815260200190815260200160002060006101000a81548160ff021916908315150217905550806004016000815480929190610c5290611a1b565b91905055505050565b6000600360003373ffffffffffffffffffffffffffffffffffffffff1673ffffffffffffffffffffffffffffffffffffffff1681526020019081526020016000205411610ca757600080fd5b60003390508073ffffffffffffffffffffffffffffffffffffffff166108fc600360003373ffffffffffffffffffffffffffffffffffffffff1673ffffffffffffffffffffffffffffffffffffffff168152602001908152602001600020549081150290604051600060405180830381858888f19350505050158015610d31573d6000803e3d6000fd5b506000600360003373ffffffffffffffffffffffffffffffffffffffff1673ffffffffffffffffffffffffffffffffffffffff1681526020019081526020016000208190555050565b600047905090565b60095481565b60008054610d95906119b8565b80601f0160208091040260200160405190810160405280929190818152602001828054610dc1906119b8565b8015610e0e5780601f10610de357610100808354040283529160200191610e0e565b820191906000526020600020905b815481529060010190602001808311610df157829003601f168201915b505050505081565b600a602052806000526040600020600091509050806000018054610e39906119b8565b80601f0160208091040260200160405190810160405280929190818152602001828054610e65906119b8565b8015610eb25780601f10610e8757610100808354040283529160200191610eb2565b820191906000526020600020905b815481529060010190602001808311610e9557829003601f168201915b5050505050908060010160009054906101000a900473ffffffffffffffffffffffffffffffffffffffff16908060020154908060030160009054906101000a900460ff16908060040154905085565b60045481565b60018054610f14906119b8565b80601f0160208091040260200160405190810160405280929190818152602001828054610f40906119b8565b8015610f8d5780601f10610f6257610100808354040283529160200191610f8d565b820191906000526020600020905b815481529060010190602001808311610f7057829003601f168201915b505050505081565b60028054610fa2906119b8565b80601f0160208091040260200160405190810160405280929190818152602001828054610fce906119b8565b801561101b5780601f10610ff05761010080835404028352916020019161101b565b820191906000526020600020905b815481529060010190602001808311610ffe57829003601f168201915b505050505081565b60085481565b60075481565b600454341015611074576040517f08c379a000000000000000000000000000000000000000000000000000000000815260040161106b90611640565b60405180910390fd5b6000600360003373ffffffffffffffffffffffffffffffffffffffff1673ffffffffffffffffffffffffffffffffffffffff1681526020019081526020016000205414156110d557600960008154809291906110cf90611a1b565b91905055505b34600360003373ffffffffffffffffffffffffffffffffffffffff1673ffffffffffffffffffffffffffffffffffffffff16815260200190815260200160002060008282546111249190611895565b92505081905550346008600082825461113d9190611895565b925050819055507f906faaf913a60f38b5e8f2d6f5b163239bac2d994fa1a5d21751a51587a94057303460405161117592919061159b565b60405180910390a1565b600b5481565b60068054611192906119b8565b80601f01602080910402602001604051908101604052809291908181526020018280546111be906119b8565b801561120b5780601f106111e05761010080835404028352916020019161120b565b820191906000526020600020905b8154815290600101906020018083116111ee57829003601f168201915b505050505081565b82805461121f906119b8565b90600052602060002090601f0160209004810192826112415760008555611288565b82601f1061125a57805160ff1916838001178555611288565b82800160010185558215611288579182015b8281111561128757825182559160200191906001019061126c565b5b5090506112959190611299565b5090565b5b808211156112b257600081600090555060010161129a565b5090565b60006112c96112c484611848565b611823565b9050828152602081018484840111156112e157600080fd5b6112ec848285611976565b509392505050565b60008135905061130381611c76565b92915050565b60008135905061131881611c8d565b92915050565b600082601f83011261132f57600080fd5b813561133f8482602086016112b6565b91505092915050565b60008135905061135781611ca4565b92915050565b60006020828403121561136f57600080fd5b600061137d848285016112f4565b91505092915050565b60008060006060848603121561139b57600080fd5b600084013567ffffffffffffffff8111156113b557600080fd5b6113c18682870161131e565b93505060206113d286828701611309565b92505060406113e386828701611348565b9150509250925092565b6000602082840312156113ff57600080fd5b600061140d84828501611348565b91505092915050565b61141f8161192e565b82525050565b61142e8161191c565b82525050565b61143d81611940565b82525050565b600061144e82611879565b6114588185611884565b9350611468818560208601611985565b61147181611b20565b840191505092915050565b6000611489601f83611884565b915061149482611b31565b602082019050919050565b60006114ac602383611884565b91506114b782611b5a565b604082019050919050565b60006114cf601883611884565b91506114da82611ba9565b602082019050919050565b60006114f2601e83611884565b91506114fd82611bd2565b602082019050919050565b6000611515601e83611884565b915061152082611bfb565b602082019050919050565b6000611538601983611884565b915061154382611c24565b602082019050919050565b600061155b601683611884565b915061156682611c4d565b602082019050919050565b61157a8161196c565b82525050565b60006020820190506115956000830184611425565b92915050565b60006040820190506115b06000830185611425565b6115bd6020830184611571565b9392505050565b600060208201905081810360008301526115de8184611443565b905092915050565b600060a08201905081810360008301526116008188611443565b905061160f6020830187611416565b61161c6040830186611571565b6116296060830185611434565b6116366080830184611571565b9695505050505050565b600060208201905081810360008301526116598161147c565b9050919050565b600060208201905081810360008301526116798161149f565b9050919050565b60006020820190508181036000830152611699816114c2565b9050919050565b600060208201905081810360008301526116b9816114e5565b9050919050565b600060208201905081810360008301526116d981611508565b9050919050565b600060208201905081810360008301526116f98161152b565b9050919050565b600060208201905081810360008301526117198161154e565b9050919050565b60006020820190506117356000830184611571565b92915050565b60006040820190506117506000830185611571565b81810360208301526117628184611443565b90509392505050565b600061014082019050611781600083018d611571565b61178e602083018c611571565b61179b604083018b611571565b6117a8606083018a611571565b6117b56080830189611425565b81810360a08301526117c78188611443565b905081810360c08301526117db8187611443565b905081810360e08301526117ef8186611443565b90506117ff610100830185611571565b8181036101208301526118128184611443565b90509b9a5050505050505050505050565b600061182d61183e565b905061183982826119ea565b919050565b6000604051905090565b600067ffffffffffffffff82111561186357611862611af1565b5b61186c82611b20565b9050602081019050919050565b600081519050919050565b600082825260208201905092915050565b60006118a08261196c565b91506118ab8361196c565b9250827fffffffffffffffffffffffffffffffffffffffffffffffffffffffffffffffff038211156118e0576118df611a64565b5b828201905092915050565b60006118f68261196c565b91506119018361196c565b92508261191157611910611a93565b5b828204905092915050565b60006119278261194c565b9050919050565b60006119398261194c565b9050919050565b60008115159050919050565b600073ffffffffffffffffffffffffffffffffffffffff82169050919050565b6000819050919050565b82818337600083830152505050565b60005b838110156119a3578082015181840152602081019050611988565b838111156119b2576000848401525b50505050565b600060028204905060018216806119d057607f821691505b602082108114156119e4576119e3611ac2565b5b50919050565b6119f382611b20565b810181811067ffffffffffffffff82111715611a1257611a11611af1565b5b80604052505050565b6000611a268261196c565b91507fffffffffffffffffffffffffffffffffffffffffffffffffffffffffffffffff821415611a5957611a58611a64565b5b600182019050919050565b7f4e487b7100000000000000000000000000000000000000000000000000000000600052601160045260246000fd5b7f4e487b7100000000000000000000000000000000000000000000000000000000600052601260045260246000fd5b7f4e487b7100000000000000000000000000000000000000000000000000000000600052602260045260246000fd5b7f4e487b7100000000000000000000000000000000000000000000000000000000600052604160045260246000fd5b6000601f19601f8301169050919050565b7f4d696e696d756d20436f6e747269627574696f6e206973206e6f74206d657400600082015250565b7f4f6e6c79206d616e616765722063616e2063616c6c20746869732066756e637460008201527f696f6e0000000000000000000000000000000000000000000000000000000000602082015250565b7f4d616a6f7269747920646f65736e277420737570706f72740000000000000000600082015250565b7f526571756573742066696e616c697a6564205375636365737366756c6c790000600082015250565b7f546865207265717565737420686173206265656e20636f6d706c657465640000600082015250565b7f596f75206d757374206265206120636f6e7472696275746f7200000000000000600082015250565b7f596f75206861766520616c726561647920766f74656400000000000000000000600082015250565b611c7f8161191c565b8114611c8a57600080fd5b50565b611c968161192e565b8114611ca157600080fd5b50565b611cad8161196c565b8114611cb857600080fd5b5056fea26469706673582212201ffb93970b2f87ec641976570d0c866ba00225e13f488a1ce205038ea8aa0d3064736f6c63430008040033",
  "linkReferences": {},
  "deployedLinkReferences": {}
}